:10000000A6C00000B8C00000B6C00000B4C0000028
:10001000B2C00000B0C00000AEC00000ACC0000024
:10002000AAC00000A8C00000A6C00000A4C0000034
:10003000A2C00000A0C000009EC000009CC0000044
:100040009AC0000098C0000096C0000094C0000054
:1000500092C0000000407A10F35A00A0724E1809B6
:100060000010A5D4E80000E87648170000E40B541F
:10007000020000CA9A3B000000E1F50500008096EE
:100080009800000040420F000000A0860100000020
:10009000102700000000E8030000000064000000DA
:1000A00000000A00000000000100000000002C76A3
:1000B000D888DC674F0823DFC1DFAE59E1B1B796BE
:1000C000E5E3E453C63AE651997696E8E6C284261B
:1000D000EB898C9B62ED407C6FFCEFBC9C9F40F2F7
:1000E000BAA56FA5F490055A2AF75C936B6CF96773
:1000F0006DC11BFCE0E40D47FEF520E6B500D0ED38
:10010000902E0300943577050080841E080000209F
:100110004E0A000000C80C333333330F986E12833D
:100120001141EF8D2114893BE65516CFFEE6DB1811
:10013000D1844B381BF77C1D901DA4BBE4242032D6
:1001400084725E228100C9F124ECA1E53D271124CF
:100150001FBECFE5D4E0DEBFCDBF11E0A0E6B0E02A
:10016000EEEDF4E102C005900D92A63BB107D9F780
:1001700069D40C946D0A44CFA8E1B0E0E1ECF0E062
:1001800073C669837A838B839C832D833E834F83DD
:100190005887B9E0EB2EF12CEC0EFD1ECE01019636
:1001A000B70165D28E010F5E1F4FCE010596B801D3
:1001B0005ED22985223008F47EC03989323010F4AD
:1001C000B8017CC08A859A8989278A87243011F0F2
:1001D000223031F4231709F06EC06AEA70E06EC075
:1001E000343039F41D861E861F86188A1C861B86AD
:1001F00004C0323021F484E08987B7015FC02B85C9
:100200003C858B899C89281B390B3C872B87ED8487
:10021000FE840F851889AD88BE88CF88D88CEA14F3
:10022000FB040C051D0540F4EE0CFF1C001F111F04
:10023000215030403C872B8720E030E040E050E008
:1002400080E090E0A0E0B0E460E070E0EA14FB043D
:100250000C051D0540F0282B392B4A2B5B2BEA1887
:10026000FB080C091D09B695A79597958795EE0C87
:10027000FF1C001F111F6F5F7F4F6F31710531F73A
:10028000DA01C9018F779070A070B0708034910549
:10029000A105B10561F427FD0AC0E114F1040105CF
:1002A000110529F0205C3F4F4F4F5F4F20782D877D
:1002B0003E874F87588BBE01675F7F4FCB0102D1CE
:1002C0006896EAE0EDC5A8E1B0E0E8E6F1E0D0C567
:1002D00069837A838B839C832D833E834F835887E6
:1002E00089E0E82EF12CEC0EFD1ECE010196B7013F
:1002F000BED18E010F5E1F4FCE010596B801B7D15A
:100300008985823038F08989823020F0C701B801B0
:1003100026D201C08FEF6896E6E0C6C5A8E1B0E03E
:10032000E3E9F1E0A5C569837A838B839C832D8300
:100330003E834F83588789E0E82EF12CEC0EFD1E9A
:10034000CE010196B70193D18E010F5E1F4FCE01F2
:100350000596B8018CD18985823038F08989823040
:1003600020F0C701B801FBD101C081E06896E6E04A
:100370009BC5A8E0B0E0EEEBF1E077C59B01AC01D6
:1003800083E08983DA01C9018827B7FD839599271E
:10039000AA27BB27B82E211531054105510519F4AF
:1003A00082E0898339C08823A9F0203080E03807B3
:1003B00080E0480780E8580729F460E070E080E0BA
:1003C0009FEC2EC0EE24FF248701E21AF30A040BEF
:1003D000150B02C079018A018EE1C82ED12CDC8276
:1003E000CB82ED82FE820F831887C801B7011BD034
:1003F00001971816190684F4082E04C0EE0CFF1C91
:10040000001F111F0A94D2F7ED82FE820F83188716
:10041000C81AD90ADC82CB82BA82CE01019652D0A8
:100420002896E9E03EC5EF92FF920F931F937B0160
:100430008C0180E0E81680E0F80681E0080780E0A3
:10044000180788F48FEFE816F1040105110531F063
:1004500028F088E090E0A0E0B0E017C080E090E0F5
:10046000A0E0B0E012C080E0E81680E0F80680E08E
:10047000080781E0180728F088E190E0A0E0B0E0EC
:1004800004C080E190E0A0E0B0E020E230E040E095
:1004900050E0281B390B4A0B5B0B04C016950795DF
:1004A000F794E7948A95D2F7F701EE54FF4F8081D5
:1004B000281B310941095109C9011F910F91FF9072
:1004C000EF900895DF92EF92FF920F931F93FC013C
:1004D000E480F58006811781D1808081823048F4E4
:1004E00080E090E0A0E1B0E0E82AF92A0A2B1B2B7B
:1004F000A5C0843009F49FC0823021F4EE24FF248B
:10050000870105C0E114F1040105110519F4E0E0CB
:10051000F0E096C0628173819FEF623879070CF03A
:100520005BC022E83FEF261B370B2A3131052CF048
:1005300020E030E040E050E02AC0B801A701022EE0
:1005400004C076956795579547950A94D2F781E050
:1005500090E0A0E0B0E004C0880F991FAA1FBB1F65
:100560002A95D2F70197A109B1098E219F21A023D5
:10057000B1230097A105B10521F081E090E0A0E052
:10058000B0E09A01AB01282B392B4A2B5B2BDA0107
:10059000C9018F779070A070B07080349105A1056B
:1005A000B10539F427FF09C0205C3F4F4F4F5F4F23
:1005B00004C0215C3F4F4F4F5F4FE0E0F0E0203040
:1005C000A0E03A07A0E04A07A0E45A0710F0E1E0F3
:1005D000F0E079018A0127C06038710564F5FB01FC
:1005E000E158FF4FD801C7018F779070A070B070AD
:1005F00080349105A105B10539F4E7FE0DC080E412
:1006000090E0A0E0B0E004C08FE390E0A0E0B0E0B4
:10061000E80EF91E0A1F1B1F17FF05C01695079548
:10062000F794E794319687E016950795F794E79449
:100630008A95D1F705C0EE24FF248701EFEFF0E0A3
:100640006E2F679566276795902F9F77D794DD2447
:10065000D7948E2F8695492F462B582F5D29B701A9
:10066000CA011F910F91FF90EF90DF900895FC0158
:10067000DB01408151812281622F6F7770E0221F60
:100680002227221F9381892F880F822B282F30E069
:10069000991F9927991F11969C9311972115310540
:1006A000A9F5411551056105710511F482E037C0C6
:1006B00082E89FEF13969C938E9312979A01AB0159
:1006C00067E0220F331F441F551F6A95D1F783E05F
:1006D0008C930DC0220F331F441F551F12968D910E
:1006E0009C911397019713969C938E9312972030A9
:1006F00080E0380780E0480780E4580758F31496F4
:100700002D933D934D935C93179708952F3F31059B
:1007100079F4411551056105710519F484E08C9354
:10072000089564FF03C081E08C9312C01C9210C036
:100730002F57304013963C932E93129783E08C935F
:1007400087E0440F551F661F771F8A95D1F77064A5
:1007500014964D935D936D937C93179708951F9313
:10076000DC01FB019C91923008F447C0808182300B
:1007700008F443C0943051F411961C91843099F5DB
:100780008181682F70E0611B71093FC0843021F0C6
:10079000923031F48230B9F18181882389F12DC002
:1007A00011961C9111978230F1F081811817D9F4BC
:1007B00012962D913C911397828193818217930712
:1007C00094F028173907BCF014968D919D910D90E7
:1007D000BC91A02D24813581468157812817390786
:1007E0004A075B0718F4112341F00AC082179307E8
:1007F000A407B50740F4112319F061E070E005C0CB
:100800006FEF7FEF02C060E070E0CB011F910895B1
:1008100080FF02C0C29A01C0C29881FF02C0C39A81
:1008200001C0C39882FF02C0C49A01C0C49883FF6C
:1008300002C0C59A0895C59808951F93182FC19AAC
:1008400082958F70E5DFC198C19A812FE1DFC19851
:1008500080E18A95F1F71F910895C098EECF1F931C
:10086000CF93DF93BA9ABB9ABC9ABD9AB99AB89AB9
:1008700086EA9EE00197F1F7C098C19810E0C2EEB9
:10088000D4E0C19A83E0C4DFC198CE010197F1F7AB
:100890001F5F1330B1F7C19A82E0BADFC1988AEFC7
:1008A00090E00197F1F788E2D8DF88E0D6DF81E0B9
:1008B000D4DF84EF91E00197F1F786E0CEDF8CE0A2
:1008C000CCDFDF91CF911F910895C09AB6CFCF931F
:1008D000DF93EC0102C02196F8DF88818823D9F7E5
:1008E000DF91CF9108956295660F660F607C680F67
:1008F000862F8068B2CF81E0B0DF84EF91E001976E
:10090000F1F7089514BA8FEF85BB9F9B03C020E6D3
:1009100030E002C022E630E09E9902C024E630E0DA
:10092000C9010895FA01803191055CF0608B20E0E7
:1009300030E02F5F3F4F8181819320313105C9F72E
:100940000895E80FF91F60830895EF92FF920F93C7
:100950001F93DF93CF93CDB7DEB760970FB6F894B0
:10096000DEBF0FBECDBF8C01C6DF80E060E0BBDF25
:1009700086E690E0ACDF8FEF9FEF29E130E0F901F0
:100980003197F1F70197D9F7B6DF80E060E0ABDF90
:1009900080E790E09CDFB801882777FD8095982F4D
:1009A000E8DC41E020E07E010894E11CF11C8701B5
:1009B0008AD280E061E097DFC70189DF80E593ECB0
:1009C00029E130E0F9013197F1F70197D9F780E596
:1009D00093EC29E130E0F9013197F1F70197D9F76C
:1009E00080E593EC29E130E0F9013197F1F70197C7
:1009F000D9F780E593EC29E130E0F9013197F1F77F
:100A00000197D9F780E060E06EDF8DE790E05FDF6F
:100A100080E061E068DF89E890E059DF73DFFC0186
:100A2000E081E73611F0E436C9F760960FB6F89426
:100A3000DEBF0FBECDBFCF91DF911F910F91FF9011
:100A4000EF9008952F923F924F925F926F927F9214
:100A50008F929F92AF92BF92CF92DF92EF92FF92CE
:100A60000F931F93DF93CF93CDB7DEB7CE55D04012
:100A70000FB6F894DEBF0FBECDBFCE018F966F9636
:100A80009FAF8EAF6F97E1E3F0E0EC0FFD1F7E9616
:100A90006D96FFAFEEAF6D97E2DE80E060E023DFA2
:100AA0008DE790E014DF80E061E01DDF84E990E0F5
:100AB0000EDF28DFFC01E081E73611F0E436C9F7EC
:100AC0001ADF80E060E00FDF8DE990E000DF80E674
:100AD0009AEEE9E1F0E03197F1F70197D1F7FE01E5
:100AE000719680E281936F968EAD9FAD6F97E817F8
:100AF000F907B9F7FE01F19690E291936D968EADEC
:100B00009FAD6D97E817F907B9F780E090E06EE3C5
:100B1000AE014F5C5F4F06DFAA24BB2488249924D2
:100B2000662477246B961FAE1EAE6B9769961FAE38
:100B30001EAE699782E3282E312CE3E0F0E0679641
:100B4000FFAFEEAF67974424552403C00894A11C5F
:100B5000B11C22D2AA2797FDA095BA2FBC01CD01C6
:100B600008DC20E03EEF4FEF56E406DB6B017C0132
:100B7000C9DE63969FAF8EAF6397C701B60141E0B0
:100B800023E08E010F5F1F4F9ED1F8E22F16310434
:100B9000CCF48EE1281631043CF0E2E0F0E06796F8
:100BA000FFAFEEAF67970EC067961FAE1EAE67979A
:100BB000F4E12F16310434F081E090E067969FAFA6
:100BC0008EAF67976396EEADFFAD639780818736F2
:100BD00041F08436D1F06B968EAD9FAD6B97019747
:100BE000C1F499A99E3319F58989803209F0E0C0D2
:100BF000998B89ABE1E0F0E06996FFAFEEAF6997C2
:100C00006B96FFAFEEAF6B9718C06B961FAE1EAE24
:100C10006B9799899E3389F489A9803209F0C8C0FD
:100C200099AB898B69961FAE1EAE699706C081E0AD
:100C300090E06B969FAF8EAF6B972A143B040CF03D
:100C4000A4C06796EEADFFAD6797E615F7050CF00B
:100C50003BC0C701B60120E030E040E05FE333DB9A
:100C60001816D4F480E190E06091A800AE014F5EC8
:100C70005F4F58DE80E190E060E2AE014F5C5F4F75
:100C800051DEAA24BB246624772481E090E0659697
:100C90009FAF8EAF659779C080E190E06091A8002A
:100CA000AE014F5C5F4F3EDE80E190E060E2AE015E
:100CB0004F5E5F4F37DEAA24BB24662477246596F7
:100CC0001FAE1EAE659761C06596EEADFFAD659730
:100CD0003197E1F4C701B60120E030E040E05FE386
:100CE000F2DA18160CF03CC0F2E04F165104C4F5CD
:100CF00061147104A9F580E190E06CE7AE014F5EEC
:100D00005F4F10DE80E190E060E220C065968EAD1E
:100D10009FAD6597892B21F5C701B60120E030E032
:100D200040E05FE3FBDA8823DCF492E049165104EB
:100D3000BCF461147104A1F480E190E060E2AE01C2
:100D40004F5E5F4FEFDD80E190E06CE7AE014F5CFE
:100D50005F4FE8DD0894411C511CAA24BB2415C038
:100D600080E190E060E2AE014F5E5F4FDBDD80E14D
:100D700090E060E2AE014F5C5F4FD4DD0894611CEF
:100D8000711CAA24BB24442455246996EEADFFAD02
:100D90006997319751F489898C3751F080E090E060
:100DA0006EE3AE014F5E5F4F0CC089A98C3719F41A
:100DB000C401CBDD71CE80E090E06EE3AE014F5C0C
:100DC0005F4FB0DD80E060E08EDDCE0141967FDDDB
:100DD00080E061E088DDCE01C19679DD88EA91E6A8
:100DE0000197F1F70894811C911CC40164E670E03E
:100DF0000CD0892B09F0AACEF3E12F1631040CF4A4
:100E0000A5CE089421083108A1CE97FB092E07260C
:100E10000AD077FD04D00CD006D000201AF47095CB
:100E200061957F4F0895F6F7909581959F4F0895AE
:100E3000AA1BBB1B51E107C0AA1FBB1FA617B70700
:100E400010F0A61BB70B881F991F5A95A9F780951C
:100E50009095BC01CD0108952F923F924F925F92E1
:100E60006F927F928F929F92AF92BF92CF92DF92BA
:100E7000EF92FF920F931F93CF93DF93CDB7DEB71F
:100E8000CA1BDB0B0FB6F894DEBF0FBECDBF0994B3
:100E90002A88398848885F846E847D848C849B840A
:100EA000AA84B984C884DF80EE80FD800C811B8118
:100EB000AA81B981CE0FD11D0FB6F894DEBF0FBE47
:100EC000CDBFED010895EF92FF920F931F93F22F84
:100ED000F02E47FD02C0E4E001C0E4E1242F3327F7
:100EE00027FD309537FF03C0309521953F4F4F2D9B
:100EF000512F0F2FEE2E5ED08F2D912F1F910F911E
:100F0000FF90EF900895A0E0B0E0E8E8F7E0ACCF04
:100F1000EC01A880B980CA80DB80A114B104C104AF
:100F2000D10441F484E2A82E89EDB82E8BE5C82EB9
:100F300087E0D82EC601B5012DE133EF41E050E046
:100F40008FD227EA31E440E050E06BD27B018C0184
:100F5000C601B5012DE133EF41E050E081D2CA0175
:100F6000B9012CEE34EF4FEF5FEF5BD26E0D7F1DBA
:100F7000801F911F97FF04C06150704080409048CF
:100F8000688379838A839B839B013F77C901CDB7AF
:100F9000DEB7EAE085CFB7CF82EB91E0B4CFA0E037
:100FA000B0E08093B2019093B301A093B401B093E9
:100FB000B5010895A9E0B0E0EFEDF7E051CF6A0187
:100FC000122FA02EBE2C2BE3201718F42CE3922E08
:100FD00002C0902E9394AE014F5F5F4F27E0092D22
:100FE00048D1BC018981E82EFF24C7018970907027
:100FF000019711F4ADE209C0B1FE02C0ABE205C039
:10100000B0FC02C0A0E001C0A0E2E3FE3BC0AA2306
:1010100011F423E001C024E0211710F020E002C009
:10102000121B212FEB2CB4FE02C0322F0AC0F60196
:10103000322F80E202C0819331503323E1F7C20E98
:10104000D11CAA2319F0F601A1936F01F601319684
:10105000E2FE05C09EE4D6019C9381E404C09EE6B6
:10106000D6019C9381E611968C9391833296DF0191
:10107000832F90E202C09D9381508823E1F7E30F14
:10108000F11D40C0E2FE42C0AA2311F423E001C0DA
:1010900024E0211710F020E002C0121B212FEB2CBE
:1010A000B4FE02C0922F0AC0F601922F80E202C065
:1010B000819391509923E1F7C20ED11CAA2319F014
:1010C000F601A1936F01F6013196E2FE08C089E4B2
:1010D000D6018C938EE411968C9386E407C089E642
:1010E000D6018C938EE611968C9386E68183329698
:1010F000DF01892F20E202C02D9381508823E1F780
:10110000E90FF11D10822EEF3FEFAFC01616170644
:101110001CF041E050E003C0AB014F5F5F4FAA20DD
:1011200019F480E090E003C08A2D90E0019620E061
:1011300030E0AA2311F021E030E0240F351F280F02
:10114000391F812F90E02817390714F020E002C0E2
:10115000121B212F4B2D50E0CA0180719070B4FCFE
:101160000DC0B3FC0BC0F601322F40E202C0419328
:1011700031503323E1F7C20ED11C01C0322FAA2314
:1011800019F0F601A1936F01892B11F0132F0AC0FA
:10119000F601132F80E302C0819311501123E1F770
:1011A000C30ED11C092D060FBA8090E1892E912C17
:1011B0008E209F20E4FE04C0F1E3BF1609F4015025
:1011C000101614F001E003C0093008F008E09B019C
:1011D00077FF02C020E030E0CB010196821B930B29
:1011E000FE013196E80FF91F8EE2F82E3B01601ADE
:1011F00071088A2D90E044275527481B590B8FEF23
:101200002F3F380719F4D601FD926D01621773075D
:101210002CF06216730614F4808101C080E3215023
:10122000304031962417350724F0D6018D936D0197
:10123000E6CF2617370749F4B5E3BB1528F0BB16F0
:1012400021F48114910409F481E3F6018193D6011C
:10125000812F90E202C09C93815011968823D9F788
:10126000E10FF11D108220E030E0C9012996EEE087
:1012700013CE283008F027E03327DA01990F311D0B
:1012800087FD916000966105710539F432602E5F2B
:101290003D9330E32A95E1F708959F3F30F0803881
:1012A0007105610509F03C5F3C5F3D93913008F0AA
:1012B0008068911DDF93CF931F930F93FF92EF925E
:1012C000192F987F9695E92F96959695E90FFF2708
:1012D000E255FF4F99273327EE24FF24A701E701AA
:1012E00005900894079428F4360FE71EF81E491F4E
:1012F000511D660F771F881F991F0694A1F705904F
:10130000079428F4E70EF81E491F561FC11D770FDA
:10131000881F991F661F0694A1F70590079428F46B
:10132000F80E491F561FC71FD11D880F991F661F32
:10133000771F0694A1F70590079420F4490F561FD4
:10134000C71FD81F990F661F771F881F0694A9F71C
:1013500084911095177041F0D695C795579547958C
:10136000F794E7941A95C1F7E4E5F0E068941590D6
:10137000159135916591959105907FE27395E118EE
:10138000F10A430B560BC90BD009C0F7E10CF11E53
:10139000431F561FC91FD01D7EF4703311F48A9568
:1013A000E6CFE894015030F0080F0AF40027021746
:1013B00008F4202F2395022F7A3328F079E37D93C8
:1013C0002A95E9F710C07D932A9589F6069497959A
:1013D0006795379517951794E118F10A430B560B4B
:1013E000C90BD00998F023957E9173957A3308F054
:1013F00070E37C932013B8F77E9170617D9330F099
:10140000839571E37D9370E32A95E1F71124EF90C2
:10141000FF900F911F91CF91DF91992787FD9095B4
:101420000895629FD001739FF001829FE00DF11D2E
:10143000649FE00DF11D929FF00D839FF00D749F4E
:10144000F00D659FF00D9927729FB00DE11DF91FFA
:10145000639FB00DE11DF91FBD01CF011124089557
:1014600097FB092E05260ED057FD04D014D00AD0C4
:10147000001C38F450954095309521953F4F4F4FC3
:101480005F4F0895F6F790958095709561957F4F21
:101490008F4F9F4F0895A1E21A2EAA1BBB1BFD017F
:1014A0000DC0AA1FBB1FEE1FFF1FA217B307E40743
:1014B000F50720F0A21BB30BE40BF50B661F771F9B
:1014C000881F991F1A9469F760957095809590957B
:0E14D0009B01AC01BD01CF010895F894FFCF40
:1014DE007A006700640047616D65206F7665720063
:1014EE00596F757220706F696E74733A0050757310
:1014FE006820627574746F6E00746F2072657374F9
:10150E0061727400746F2073746172740057617429
:10151E006368206F757421007C00000000000000DD
:10152E000000000102020303030304040404040484
:10153E00040405050505050505050505050505054F
:10154E00050506060606060606060606060606062F
:10155E00060606060606060606060606060606061D
:10156E0006060707070707070707070707070707FF
:10157E0007070707070707070707070707070707ED
:10158E0007070707070707070707070707070707DD
:10159E0007070707070707070707070707070707CD
:1015AE0007070808080808080808080808080808AF
:1015BE00080808080808080808080808080808089D
:1015CE00080808080808080808080808080808088D
:1015DE00080808080808080808080808080808087D
:1015EE00080808080808080808080808080808086D
:1015FE00080808080808080808080808080808085D
:10160E00080808080808080808080808080808084C
:10161E00080808080808080808080808080808083C
:06162E00080801000000A5
:00000001FF
